{
  "contractName": "BridgeEVM",
  "abi": [
    {
      "inputs": [
        {
          "internalType": "address[]",
          "name": "initialPeers",
          "type": "address[]"
        },
        {
          "internalType": "bytes32",
          "name": "networkId",
          "type": "bytes32"
        }
      ],
      "stateMutability": "nonpayable",
      "type": "constructor"
    },
    {
      "anonymous": false,
      "inputs": [
        {
          "indexed": false,
          "internalType": "address",
          "name": "peerId",
          "type": "address"
        },
        {
          "indexed": false,
          "internalType": "bool",
          "name": "removal",
          "type": "bool"
        }
      ],
      "name": "ChangePeers",
      "type": "event"
    },
    {
      "anonymous": false,
      "inputs": [
        {
          "indexed": false,
          "internalType": "bytes32",
          "name": "destination",
          "type": "bytes32"
        },
        {
          "indexed": false,
          "internalType": "uint256",
          "name": "amount",
          "type": "uint256"
        },
        {
          "indexed": false,
          "internalType": "address",
          "name": "token",
          "type": "address"
        },
        {
          "indexed": false,
          "internalType": "bytes32",
          "name": "sidechainAsset",
          "type": "bytes32"
        }
      ],
      "name": "Deposit",
      "type": "event"
    },
    {
      "anonymous": false,
      "inputs": [
        {
          "indexed": false,
          "internalType": "address",
          "name": "to",
          "type": "address"
        }
      ],
      "name": "Migrated",
      "type": "event"
    },
    {
      "anonymous": false,
      "inputs": [],
      "name": "PreparedForMigration",
      "type": "event"
    },
    {
      "anonymous": false,
      "inputs": [
        {
          "indexed": false,
          "internalType": "bytes32",
          "name": "txHash",
          "type": "bytes32"
        }
      ],
      "name": "Withdrawal",
      "type": "event"
    },
    {
      "stateMutability": "nonpayable",
      "type": "fallback"
    },
    {
      "inputs": [],
      "name": "_networkId",
      "outputs": [
        {
          "internalType": "bytes32",
          "name": "",
          "type": "bytes32"
        }
      ],
      "stateMutability": "view",
      "type": "function"
    },
    {
      "inputs": [
        {
          "internalType": "uint256",
          "name": "",
          "type": "uint256"
        }
      ],
      "name": "_sidechainTokenAddressArray",
      "outputs": [
        {
          "internalType": "address",
          "name": "",
          "type": "address"
        }
      ],
      "stateMutability": "view",
      "type": "function"
    },
    {
      "inputs": [
        {
          "internalType": "bytes32",
          "name": "",
          "type": "bytes32"
        }
      ],
      "name": "_sidechainTokens",
      "outputs": [
        {
          "internalType": "address",
          "name": "",
          "type": "address"
        }
      ],
      "stateMutability": "view",
      "type": "function"
    },
    {
      "inputs": [
        {
          "internalType": "address",
          "name": "",
          "type": "address"
        }
      ],
      "name": "_sidechainTokensByAddress",
      "outputs": [
        {
          "internalType": "bytes32",
          "name": "",
          "type": "bytes32"
        }
      ],
      "stateMutability": "view",
      "type": "function"
    },
    {
      "inputs": [
        {
          "internalType": "address",
          "name": "",
          "type": "address"
        }
      ],
      "name": "_uniqueAddresses",
      "outputs": [
        {
          "internalType": "bool",
          "name": "",
          "type": "bool"
        }
      ],
      "stateMutability": "view",
      "type": "function"
    },
    {
      "inputs": [
        {
          "internalType": "address",
          "name": "",
          "type": "address"
        }
      ],
      "name": "acceptedEthTokens",
      "outputs": [
        {
          "internalType": "bool",
          "name": "",
          "type": "bool"
        }
      ],
      "stateMutability": "view",
      "type": "function"
    },
    {
      "inputs": [
        {
          "internalType": "address",
          "name": "",
          "type": "address"
        }
      ],
      "name": "isPeer",
      "outputs": [
        {
          "internalType": "bool",
          "name": "",
          "type": "bool"
        }
      ],
      "stateMutability": "view",
      "type": "function"
    },
    {
      "inputs": [],
      "name": "peersCount",
      "outputs": [
        {
          "internalType": "uint256",
          "name": "",
          "type": "uint256"
        }
      ],
      "stateMutability": "view",
      "type": "function"
    },
    {
      "inputs": [
        {
          "internalType": "bytes32",
          "name": "",
          "type": "bytes32"
        }
      ],
      "name": "used",
      "outputs": [
        {
          "internalType": "bool",
          "name": "",
          "type": "bool"
        }
      ],
      "stateMutability": "view",
      "type": "function"
    },
    {
      "stateMutability": "payable",
      "type": "receive"
    },
    {
      "inputs": [],
      "name": "receivePayment",
      "outputs": [],
      "stateMutability": "payable",
      "type": "function"
    },
    {
      "inputs": [
        {
          "internalType": "address",
          "name": "newToken",
          "type": "address"
        },
        {
          "internalType": "string",
          "name": "ticker",
          "type": "string"
        },
        {
          "internalType": "string",
          "name": "name",
          "type": "string"
        },
        {
          "internalType": "uint8",
          "name": "decimals",
          "type": "uint8"
        },
        {
          "internalType": "bytes32",
          "name": "txHash",
          "type": "bytes32"
        },
        {
          "internalType": "uint8[]",
          "name": "v",
          "type": "uint8[]"
        },
        {
          "internalType": "bytes32[]",
          "name": "r",
          "type": "bytes32[]"
        },
        {
          "internalType": "bytes32[]",
          "name": "s",
          "type": "bytes32[]"
        }
      ],
      "name": "addEthNativeToken",
      "outputs": [],
      "stateMutability": "nonpayable",
      "type": "function"
    },
    {
      "inputs": [
        {
          "internalType": "address",
          "name": "thisContractAddress",
          "type": "address"
        },
        {
          "internalType": "bytes32",
          "name": "salt",
          "type": "bytes32"
        },
        {
          "internalType": "uint8[]",
          "name": "v",
          "type": "uint8[]"
        },
        {
          "internalType": "bytes32[]",
          "name": "r",
          "type": "bytes32[]"
        },
        {
          "internalType": "bytes32[]",
          "name": "s",
          "type": "bytes32[]"
        }
      ],
      "name": "prepareForMigration",
      "outputs": [],
      "stateMutability": "nonpayable",
      "type": "function"
    },
    {
      "inputs": [
        {
          "internalType": "address",
          "name": "thisContractAddress",
          "type": "address"
        },
        {
          "internalType": "bytes32",
          "name": "salt",
          "type": "bytes32"
        },
        {
          "internalType": "address payable",
          "name": "newContractAddress",
          "type": "address"
        },
        {
          "internalType": "address[]",
          "name": "erc20nativeTokens",
          "type": "address[]"
        },
        {
          "internalType": "uint8[]",
          "name": "v",
          "type": "uint8[]"
        },
        {
          "internalType": "bytes32[]",
          "name": "r",
          "type": "bytes32[]"
        },
        {
          "internalType": "bytes32[]",
          "name": "s",
          "type": "bytes32[]"
        }
      ],
      "name": "shutDownAndMigrate",
      "outputs": [],
      "stateMutability": "nonpayable",
      "type": "function"
    },
    {
      "inputs": [
        {
          "internalType": "string",
          "name": "name",
          "type": "string"
        },
        {
          "internalType": "string",
          "name": "symbol",
          "type": "string"
        },
        {
          "internalType": "uint8",
          "name": "decimals",
          "type": "uint8"
        },
        {
          "internalType": "bytes32",
          "name": "sidechainAssetId",
          "type": "bytes32"
        },
        {
          "internalType": "bytes32",
          "name": "txHash",
          "type": "bytes32"
        },
        {
          "internalType": "uint8[]",
          "name": "v",
          "type": "uint8[]"
        },
        {
          "internalType": "bytes32[]",
          "name": "r",
          "type": "bytes32[]"
        },
        {
          "internalType": "bytes32[]",
          "name": "s",
          "type": "bytes32[]"
        }
      ],
      "name": "addNewSidechainToken",
      "outputs": [],
      "stateMutability": "nonpayable",
      "type": "function"
    },
    {
      "inputs": [
        {
          "internalType": "bytes32",
          "name": "to",
          "type": "bytes32"
        }
      ],
      "name": "sendEthToSidechain",
      "outputs": [],
      "stateMutability": "payable",
      "type": "function"
    },
    {
      "inputs": [
        {
          "internalType": "bytes32",
          "name": "to",
          "type": "bytes32"
        },
        {
          "internalType": "uint256",
          "name": "amount",
          "type": "uint256"
        },
        {
          "internalType": "address",
          "name": "tokenAddress",
          "type": "address"
        }
      ],
      "name": "sendERC20ToSidechain",
      "outputs": [],
      "stateMutability": "nonpayable",
      "type": "function"
    },
    {
      "inputs": [
        {
          "internalType": "address",
          "name": "newPeerAddress",
          "type": "address"
        },
        {
          "internalType": "bytes32",
          "name": "txHash",
          "type": "bytes32"
        },
        {
          "internalType": "uint8[]",
          "name": "v",
          "type": "uint8[]"
        },
        {
          "internalType": "bytes32[]",
          "name": "r",
          "type": "bytes32[]"
        },
        {
          "internalType": "bytes32[]",
          "name": "s",
          "type": "bytes32[]"
        }
      ],
      "name": "addPeerByPeer",
      "outputs": [
        {
          "internalType": "bool",
          "name": "",
          "type": "bool"
        }
      ],
      "stateMutability": "nonpayable",
      "type": "function"
    },
    {
      "inputs": [
        {
          "internalType": "address",
          "name": "peerAddress",
          "type": "address"
        },
        {
          "internalType": "bytes32",
          "name": "txHash",
          "type": "bytes32"
        },
        {
          "internalType": "uint8[]",
          "name": "v",
          "type": "uint8[]"
        },
        {
          "internalType": "bytes32[]",
          "name": "r",
          "type": "bytes32[]"
        },
        {
          "internalType": "bytes32[]",
          "name": "s",
          "type": "bytes32[]"
        }
      ],
      "name": "removePeerByPeer",
      "outputs": [
        {
          "internalType": "bool",
          "name": "",
          "type": "bool"
        }
      ],
      "stateMutability": "nonpayable",
      "type": "function"
    },
    {
      "inputs": [
        {
          "internalType": "address",
          "name": "tokenAddress",
          "type": "address"
        },
        {
          "internalType": "uint256",
          "name": "amount",
          "type": "uint256"
        },
        {
          "internalType": "address payable",
          "name": "to",
          "type": "address"
        },
        {
          "internalType": "address",
          "name": "from",
          "type": "address"
        },
        {
          "internalType": "bytes32",
          "name": "txHash",
          "type": "bytes32"
        },
        {
          "internalType": "uint8[]",
          "name": "v",
          "type": "uint8[]"
        },
        {
          "internalType": "bytes32[]",
          "name": "r",
          "type": "bytes32[]"
        },
        {
          "internalType": "bytes32[]",
          "name": "s",
          "type": "bytes32[]"
        }
      ],
      "name": "receiveByEthereumAssetAddress",
      "outputs": [],
      "stateMutability": "nonpayable",
      "type": "function"
    },
    {
      "inputs": [
        {
          "internalType": "bytes32",
          "name": "sidechainAssetId",
          "type": "bytes32"
        },
        {
          "internalType": "uint256",
          "name": "amount",
          "type": "uint256"
        },
        {
          "internalType": "address",
          "name": "to",
          "type": "address"
        },
        {
          "internalType": "address",
          "name": "from",
          "type": "address"
        },
        {
          "internalType": "bytes32",
          "name": "txHash",
          "type": "bytes32"
        },
        {
          "internalType": "uint8[]",
          "name": "v",
          "type": "uint8[]"
        },
        {
          "internalType": "bytes32[]",
          "name": "r",
          "type": "bytes32[]"
        },
        {
          "internalType": "bytes32[]",
          "name": "s",
          "type": "bytes32[]"
        }
      ],
      "name": "receiveBySidechainAssetId",
      "outputs": [],
      "stateMutability": "nonpayable",
      "type": "function"
    }
  ],
  "bytecode": "0x60806040523480156200001157600080fd5b5060405162004fa038038062004fa0833981810160405260408110156200003757600080fd5b81019080805160405193929190846401000000008211156200005857600080fd5b9083019060208201858111156200006e57600080fd5b82518660208202830111640100000000821117156200008c57600080fd5b82525081516020918201928201910280838360005b83811015620000bb578181015183820152602001620000a1565b505050509190910160405250602001519150600090505b82518160ff161015620001115762000107838260ff1681518110620000f357fe5b60200260200101516200013060201b60201c565b50600101620000d2565b50600955506000805461ff001960ff199091166001171690556200018a565b6001600160a01b03811660009081526001602052604081205460ff16156200015757600080fd5b506001600160a01b03166000908152600160208190526040909120805460ff191682179055600280549091019081905590565b614e06806200019a6000396000f3fe608060405260043610620001875760003560e01c8063835c19f311620000d3578063b07c411f116200007f578063cd5509471162000061578063cd55094714620012bd578063dfd9db891462001301578063fdfba25d14620016075762000192565b8063b07c411f14620010a8578063ca70cf6e14620010d65762000192565b806389c39baf11620000b557806389c39baf1462000cc25780639ee3fae51462000ea9578063ae6664e014620010905762000192565b8063835c19f31462000c8a5780638505e8681462000c945762000192565b806323ad7de211620001335780635fde87c511620001155780635fde87c51462000a1d578063687a82db1462000a4757806375273ece1462000a8b5762000192565b806323ad7de214620006ea5780633e44cf7814620009d95762000192565b806313406413116200016957806313406413146200024f578063135f14e214620004955780631628313414620006935762000192565b806303ef9d1f14620001a557806312c6fa1b14620001f75762000192565b366200019257600080fd5b3480156200019f57600080fd5b50600080fd5b348015620001b257600080fd5b50620001f560048036036060811015620001cb57600080fd5b508035906020810135906040013573ffffffffffffffffffffffffffffffffffffffff1662001627565b005b3480156200020457600080fd5b506200023b600480360360208110156200021d57600080fd5b503573ffffffffffffffffffffffffffffffffffffffff1662001a3d565b604080519115158252519081900360200190f35b3480156200025c57600080fd5b50620001f5600480360360e08110156200027557600080fd5b73ffffffffffffffffffffffffffffffffffffffff8235811692602081013592604082013590921691810190608081016060820135640100000000811115620002bd57600080fd5b820183602082011115620002d057600080fd5b80359060200191846020830284011164010000000083111715620002f357600080fd5b9193909290916020810190356401000000008111156200031257600080fd5b8201836020820111156200032557600080fd5b803590602001918460208302840111640100000000831117156200034857600080fd5b91908080602002602001604051908101604052809392919081815260200183836020028082843760009201919091525092959493602081019350359150506401000000008111156200039957600080fd5b820183602082011115620003ac57600080fd5b80359060200191846020830284011164010000000083111715620003cf57600080fd5b91908080602002602001604051908101604052809392919081815260200183836020028082843760009201919091525092959493602081019350359150506401000000008111156200042057600080fd5b8201836020820111156200043357600080fd5b803590602001918460208302840111640100000000831117156200045657600080fd5b91908080602002602001604051908101604052809392919081815260200183836020028082843760009201919091525092955062001a52945050505050565b348015620004a257600080fd5b50620001f56004803603610100811015620004bc57600080fd5b73ffffffffffffffffffffffffffffffffffffffff823581169260208101359260408201358316926060830135169160808101359181019060c0810160a08201356401000000008111156200051057600080fd5b8201836020820111156200052357600080fd5b803590602001918460208302840111640100000000831117156200054657600080fd5b91908080602002602001604051908101604052809392919081815260200183836020028082843760009201919091525092959493602081019350359150506401000000008111156200059757600080fd5b820183602082011115620005aa57600080fd5b80359060200191846020830284011164010000000083111715620005cd57600080fd5b91908080602002602001604051908101604052809392919081815260200183836020028082843760009201919091525092959493602081019350359150506401000000008111156200061e57600080fd5b8201836020820111156200063157600080fd5b803590602001918460208302840111640100000000831117156200065457600080fd5b91908080602002602001604051908101604052809392919081815260200183836020028082843760009201919091525092955062001f75945050505050565b348015620006a057600080fd5b50620006c160048036036020811015620006b957600080fd5b5035620022c2565b6040805173ffffffffffffffffffffffffffffffffffffffff9092168252519081900360200190f35b348015620006f757600080fd5b50620001f560048036036101008110156200071157600080fd5b8101906020810181356401000000008111156200072d57600080fd5b8201836020820111156200074057600080fd5b803590602001918460018302840111640100000000831117156200076357600080fd5b91908080601f0160208091040260200160405190810160405280939291908181526020018383808284376000920191909152509295949360208101935035915050640100000000811115620007b757600080fd5b820183602082011115620007ca57600080fd5b80359060200191846001830284011164010000000083111715620007ed57600080fd5b91908080601f016020809104026020016040519081016040528093929190818152602001838380828437600092019190915250929560ff853516956020860135956040810135955091935091506080810190606001356401000000008111156200085657600080fd5b8201836020820111156200086957600080fd5b803590602001918460208302840111640100000000831117156200088c57600080fd5b9190808060200260200160405190810160405280939291908181526020018383602002808284376000920191909152509295949360208101935035915050640100000000811115620008dd57600080fd5b820183602082011115620008f057600080fd5b803590602001918460208302840111640100000000831117156200091357600080fd5b91908080602002602001604051908101604052809392919081815260200183836020028082843760009201919091525092959493602081019350359150506401000000008111156200096457600080fd5b8201836020820111156200097757600080fd5b803590602001918460208302840111640100000000831117156200099a57600080fd5b919080806020026020016040519081016040528093929190818152602001838360200280828437600092019190915250929550620022fa945050505050565b348015620009e657600080fd5b506200023b60048036036020811015620009ff57600080fd5b503573ffffffffffffffffffffffffffffffffffffffff166200274b565b34801562000a2a57600080fd5b5062000a3562002760565b60408051918252519081900360200190f35b34801562000a5457600080fd5b506200023b6004803603602081101562000a6d57600080fd5b503573ffffffffffffffffffffffffffffffffffffffff1662002766565b34801562000a9857600080fd5b50620001f5600480360361010081101562000ab257600080fd5b81359160208101359173ffffffffffffffffffffffffffffffffffffffff60408301358116926060810135909116916080820135919081019060c0810160a082013564010000000081111562000b0757600080fd5b82018360208201111562000b1a57600080fd5b8035906020019184602083028401116401000000008311171562000b3d57600080fd5b919080806020026020016040519081016040528093929190818152602001838360200280828437600092019190915250929594936020810193503591505064010000000081111562000b8e57600080fd5b82018360208201111562000ba157600080fd5b8035906020019184602083028401116401000000008311171562000bc457600080fd5b919080806020026020016040519081016040528093929190818152602001838360200280828437600092019190915250929594936020810193503591505064010000000081111562000c1557600080fd5b82018360208201111562000c2857600080fd5b8035906020019184602083028401116401000000008311171562000c4b57600080fd5b9190808060200260200160405190810160405280939291908181526020018383602002808284376000920191909152509295506200277b945050505050565b620001f562002a76565b34801562000ca157600080fd5b50620006c16004803603602081101562000cba57600080fd5b503562002a78565b34801562000ccf57600080fd5b506200023b600480360360a081101562000ce857600080fd5b73ffffffffffffffffffffffffffffffffffffffff8235169160208101359181019060608101604082013564010000000081111562000d2657600080fd5b82018360208201111562000d3957600080fd5b8035906020019184602083028401116401000000008311171562000d5c57600080fd5b919080806020026020016040519081016040528093929190818152602001838360200280828437600092019190915250929594936020810193503591505064010000000081111562000dad57600080fd5b82018360208201111562000dc057600080fd5b8035906020019184602083028401116401000000008311171562000de357600080fd5b919080806020026020016040519081016040528093929190818152602001838360200280828437600092019190915250929594936020810193503591505064010000000081111562000e3457600080fd5b82018360208201111562000e4757600080fd5b8035906020019184602083028401116401000000008311171562000e6a57600080fd5b91908080602002602001604051908101604052809392919081815260200183836020028082843760009201919091525092955062002aa0945050505050565b34801562000eb657600080fd5b50620001f5600480360360a081101562000ecf57600080fd5b73ffffffffffffffffffffffffffffffffffffffff8235169160208101359181019060608101604082013564010000000081111562000f0d57600080fd5b82018360208201111562000f2057600080fd5b8035906020019184602083028401116401000000008311171562000f4357600080fd5b919080806020026020016040519081016040528093929190818152602001838360200280828437600092019190915250929594936020810193503591505064010000000081111562000f9457600080fd5b82018360208201111562000fa757600080fd5b8035906020019184602083028401116401000000008311171562000fca57600080fd5b91908080602002602001604051908101604052809392919081815260200183836020028082843760009201919091525092959493602081019350359150506401000000008111156200101b57600080fd5b8201836020820111156200102e57600080fd5b803590602001918460208302840111640100000000831117156200105157600080fd5b91908080602002602001604051908101604052809392919081815260200183836020028082843760009201919091525092955062002c8c945050505050565b3480156200109d57600080fd5b5062000a3562002eaf565b348015620010b557600080fd5b506200023b60048036036020811015620010ce57600080fd5b503562002eb5565b348015620010e357600080fd5b506200023b600480360360a0811015620010fc57600080fd5b73ffffffffffffffffffffffffffffffffffffffff823516916020810135918101906060810160408201356401000000008111156200113a57600080fd5b8201836020820111156200114d57600080fd5b803590602001918460208302840111640100000000831117156200117057600080fd5b9190808060200260200160405190810160405280939291908181526020018383602002808284376000920191909152509295949360208101935035915050640100000000811115620011c157600080fd5b820183602082011115620011d457600080fd5b80359060200191846020830284011164010000000083111715620011f757600080fd5b91908080602002602001604051908101604052809392919081815260200183836020028082843760009201919091525092959493602081019350359150506401000000008111156200124857600080fd5b8201836020820111156200125b57600080fd5b803590602001918460208302840111640100000000831117156200127e57600080fd5b91908080602002602001604051908101604052809392919081815260200183836020028082843760009201919091525092955062002eca945050505050565b348015620012ca57600080fd5b5062000a3560048036036020811015620012e357600080fd5b503573ffffffffffffffffffffffffffffffffffffffff16620030b6565b3480156200130e57600080fd5b50620001f560048036036101008110156200132857600080fd5b73ffffffffffffffffffffffffffffffffffffffff82351691908101906040810160208201356401000000008111156200136157600080fd5b8201836020820111156200137457600080fd5b803590602001918460018302840111640100000000831117156200139757600080fd5b91908080601f0160208091040260200160405190810160405280939291908181526020018383808284376000920191909152509295949360208101935035915050640100000000811115620013eb57600080fd5b820183602082011115620013fe57600080fd5b803590602001918460018302840111640100000000831117156200142157600080fd5b91908080601f016020809104026020016040519081016040528093929190818152602001838380828437600092019190915250929560ff853516956020860135959194509250606081019150604001356401000000008111156200148457600080fd5b8201836020820111156200149757600080fd5b80359060200191846020830284011164010000000083111715620014ba57600080fd5b91908080602002602001604051908101604052809392919081815260200183836020028082843760009201919091525092959493602081019350359150506401000000008111156200150b57600080fd5b8201836020820111156200151e57600080fd5b803590602001918460208302840111640100000000831117156200154157600080fd5b91908080602002602001604051908101604052809392919081815260200183836020028082843760009201919091525092959493602081019350359150506401000000008111156200159257600080fd5b820183602082011115620015a557600080fd5b80359060200191846020830284011164010000000083111715620015c857600080fd5b919080806020026020016040519081016040528093929190818152602001838360200280828437600092019190915250929550620030c8945050505050565b620001f5600480360360208110156200161f57600080fd5b5035620033be565b60005460ff16151560011462001689576040517f08c379a000000000000000000000000000000000000000000000000000000000815260040180806020018281038252603381526020018062004d606033913960400191505060405180910390fd5b600054610100900460ff1615620016ec576040517f08c379a000000000000000000000000000000000000000000000000000000000815260040180806020018281038252604281526020018062004ceb6042913960600191505060405180910390fd5b604080517fdd62ed3e00000000000000000000000000000000000000000000000000000000815233600482015230602482015290518291849173ffffffffffffffffffffffffffffffffffffffff84169163dd62ed3e916044808301926020929190829003018186803b1580156200176357600080fd5b505afa15801562001778573d6000803e3d6000fd5b505050506040513d60208110156200178f57600080fd5b50511015620017ea576040517f08c379a000000000000000000000000000000000000000000000000000000000815260040180806020018281038252602d81526020018062004cbe602d913960400191505060405180910390fd5b73ffffffffffffffffffffffffffffffffffffffff82166000908152600760205260409020548015620018af57604080517f79cc6790000000000000000000000000000000000000000000000000000000008152336004820152602481018690529051849173ffffffffffffffffffffffffffffffffffffffff8316916379cc67909160448082019260009290919082900301818387803b1580156200188f57600080fd5b505af1158015620018a4573d6000803e3d6000fd5b5050505050620019da565b73ffffffffffffffffffffffffffffffffffffffff831660009081526005602052604090205460ff166200192f576040517f08c379a000000000000000000000000000000000000000000000000000000000815260040180806020018281038252603381526020018062004d2d6033913960400191505060405180910390fd5b604080517f23b872dd00000000000000000000000000000000000000000000000000000000815233600482015230602482015260448101869052905173ffffffffffffffffffffffffffffffffffffffff8416916323b872dd9160648083019260209291908290030181600087803b158015620019ab57600080fd5b505af1158015620019c0573d6000803e3d6000fd5b505050506040513d6020811015620019d757600080fd5b50505b604080518681526020810186905273ffffffffffffffffffffffffffffffffffffffff8516818301526060810183905290517f85c0fa492ded927d3acca961da52b0dda1debb06d8c27fe189315f06bb6e26c89181900360800190a15050505050565b60046020526000908152604090205460ff1681565b60005460ff16151560011462001ab4576040517f08c379a000000000000000000000000000000000000000000000000000000000815260040180806020018281038252603381526020018062004d606033913960400191505060405180910390fd5b60005460ff61010090910416151560011462001b1c576040517f08c379a000000000000000000000000000000000000000000000000000000000815260040180806020018281038252603e81526020018062004d93603e913960400191505060405180910390fd5b3073ffffffffffffffffffffffffffffffffffffffff89161462001b3f57600080fd5b62001bd38887898888600954604051602001808773ffffffffffffffffffffffffffffffffffffffff1660601b81526014018673ffffffffffffffffffffffffffffffffffffffff1660601b8152601401858152602001848460200280828437808301925050508281526020019650505050505050604051602081830303815290604052805190602001208484846200353f565b62001c3f57604080517f08c379a000000000000000000000000000000000000000000000000000000000815260206004820152601b60248201527f50656572207369676e6174757265732061726520696e76616c69640000000000604482015290519081900360640190fd5b60005b60085481101562001cfa576008818154811062001c5b57fe5b6000918252602082200154604080517ff2fde38b00000000000000000000000000000000000000000000000000000000815273ffffffffffffffffffffffffffffffffffffffff8b811660048301529151919092169263f2fde38b926024808201939182900301818387803b15801562001cd457600080fd5b505af115801562001ce9573d6000803e3d6000fd5b50506001909201915062001c429050565b5060005b8481101562001e9557600086868381811062001d1657fe5b9050602002013573ffffffffffffffffffffffffffffffffffffffff1690508073ffffffffffffffffffffffffffffffffffffffff1663a9059cbb898373ffffffffffffffffffffffffffffffffffffffff166370a08231306040518263ffffffff1660e01b8152600401808273ffffffffffffffffffffffffffffffffffffffff16815260200191505060206040518083038186803b15801562001dba57600080fd5b505afa15801562001dcf573d6000803e3d6000fd5b505050506040513d602081101562001de657600080fd5b5051604080517fffffffff0000000000000000000000000000000000000000000000000000000060e086901b16815273ffffffffffffffffffffffffffffffffffffffff909316600484015260248301919091525160448083019260209291908290030181600087803b15801562001e5d57600080fd5b505af115801562001e72573d6000803e3d6000fd5b505050506040513d602081101562001e8957600080fd5b50505060010162001cfe565b508573ffffffffffffffffffffffffffffffffffffffff1663835c19f3476040518263ffffffff1660e01b81526004016000604051808303818588803b15801562001edf57600080fd5b505af115801562001ef4573d6000803e3d6000fd5b5050600080547fffffffffffffffffffffffffffffffffffffffffffffffffffffffffffffff0016905550506040805173ffffffffffffffffffffffffffffffffffffffff8916815290517fa2e7361c23d7820040603b83c0cd3f494d377bac69736377d75bb56c651a509892509081900360200190a15050505050505050565b60005460ff16151560011462001fd7576040517f08c379a000000000000000000000000000000000000000000000000000000000815260040180806020018281038252603381526020018062004d606033913960400191505060405180910390fd5b60008481526003602052604090205460ff161562001ff457600080fd5b6200209d8888888888600954604051602001808773ffffffffffffffffffffffffffffffffffffffff1660601b81526014018681526020018573ffffffffffffffffffffffffffffffffffffffff1660601b81526014018473ffffffffffffffffffffffffffffffffffffffff1660601b81526014018381526020018281526020019650505050505050604051602081830303815290604052805190602001208484846200353f565b6200210957604080517f08c379a000000000000000000000000000000000000000000000000000000000815260206004820152601b60248201527f50656572207369676e6174757265732061726520696e76616c69640000000000604482015290519081900360640190fd5b73ffffffffffffffffffffffffffffffffffffffff8816620021a45760008481526003602052604080822080547fffffffffffffffffffffffffffffffffffffffffffffffffffffffffffffff001660011790555173ffffffffffffffffffffffffffffffffffffffff88169189156108fc02918a91818181858888f193505050501580156200219d573d6000803e3d6000fd5b5062002285565b600084815260036020908152604080832080547fffffffffffffffffffffffffffffffffffffffffffffffffffffffffffffff0016600117905580517fa9059cbb00000000000000000000000000000000000000000000000000000000815273ffffffffffffffffffffffffffffffffffffffff8a81166004830152602482018c905291518c949285169363a9059cbb936044808501949293928390030190829087803b1580156200225557600080fd5b505af11580156200226a573d6000803e3d6000fd5b505050506040513d60208110156200228157600080fd5b5050505b6040805185815290517f0ce781a18c10c8289803c7c4cfd532d797113c4b41c9701ffad7d0a632ac555b9181900360200190a15050505050505050565b60088181548110620022d357600080fd5b60009182526020909120015473ffffffffffffffffffffffffffffffffffffffff16905081565b60005460ff1615156001146200235c576040517f08c379a000000000000000000000000000000000000000000000000000000000815260040180806020018281038252603381526020018062004d606033913960400191505060405180910390fd5b60008481526003602052604090205460ff16156200237957600080fd5b620024c488888888886009546040516020018087805190602001908083835b60208310620023d757805182527fffffffffffffffffffffffffffffffffffffffffffffffffffffffffffffffe0909201916020918201910162002398565b51815160209384036101000a7fffffffffffffffffffffffffffffffffffffffffffffffffffffffffffffffff018019909216911617905289519190930192890191508083835b602083106200245d57805182527fffffffffffffffffffffffffffffffffffffffffffffffffffffffffffffffe090920191602091820191016200241e565b6001836020036101000a0380198251168184511680821785525050505050509050018560ff1660f81b81526001018481526020018381526020018281526020019650505050505050604051602081830303815290604052805190602001208484846200353f565b6200253057604080517f08c379a000000000000000000000000000000000000000000000000000000000815260206004820152601b60248201527f50656572207369676e6174757265732061726520696e76616c69640000000000604482015290519081900360640190fd5b60008888883060008a6040516200254790620039ea565b8080602001806020018760ff1681526020018673ffffffffffffffffffffffffffffffffffffffff168152602001858152602001848152602001838103835289818151815260200191508051906020019080838360005b83811015620025b85781810151838201526020016200259e565b50505050905090810190601f168015620025e65780820380516001836020036101000a031916815260200191505b5083810382528851815288516020918201918a019080838360005b838110156200261b57818101518382015260200162002601565b50505050905090810190601f168015620026495780820380516001836020036101000a031916815260200191505b5098505050505050505050604051809103906000f08015801562002671573d6000803e3d6000fd5b506000878152600660209081526040808320805473ffffffffffffffffffffffffffffffffffffffff9095167fffffffffffffffffffffffff00000000000000000000000000000000000000009586168117909155808452600783528184209a909a556008805460018181019092557ff3f7a9fe364faab93b216da50a3214154f22a0a2b415b23a84c8169e8b636ee3018054909516909a17909355968152600390965290942080547fffffffffffffffffffffffffffffffffffffffffffffffffffffffffffffff001690951790945550505050505050565b60016020526000908152604090205460ff1681565b60095481565b60056020526000908152604090205460ff1681565b60005460ff161515600114620027dd576040517f08c379a000000000000000000000000000000000000000000000000000000000815260040180806020018281038252603381526020018062004d606033913960400191505060405180910390fd5b60008881526006602052604090205473ffffffffffffffffffffffffffffffffffffffff1662002859576040517f08c379a000000000000000000000000000000000000000000000000000000000815260040180806020018281038252602181526020018062004c9d6021913960400191505060405180910390fd5b60008481526003602052604090205460ff16156200287657600080fd5b6009546040805160208082018c90528183018b90527fffffffffffffffffffffffffffffffffffffffff00000000000000000000000060608b811b8216818501528a901b1660748301526088820188905260a8808301949094528251808303909401845260c89091019091528151910120620028f5908484846200353f565b6200296157604080517f08c379a000000000000000000000000000000000000000000000000000000000815260206004820152601b60248201527f50656572207369676e6174757265732061726520696e76616c69640000000000604482015290519081900360640190fd5b6000888152600660205260408082205481517ff0dda65c00000000000000000000000000000000000000000000000000000000815273ffffffffffffffffffffffffffffffffffffffff8a81166004830152602482018c905292519290911692839263f0dda65c92604480820193929182900301818387803b158015620029e757600080fd5b505af1158015620029fc573d6000803e3d6000fd5b50505060008681526003602090815260409182902080547fffffffffffffffffffffffffffffffffffffffffffffffffffffffffffffff00166001179055815188815291517f0ce781a18c10c8289803c7c4cfd532d797113c4b41c9701ffad7d0a632ac555b9350918290030190a1505050505050505050565b565b60066020526000908152604090205473ffffffffffffffffffffffffffffffffffffffff1681565b6000805460ff16151560011462002b03576040517f08c379a000000000000000000000000000000000000000000000000000000000815260040180806020018281038252603381526020018062004d606033913960400191505060405180910390fd5b60008581526003602052604090205460ff161562002b2057600080fd5b62002b7f8686600954604051602001808473ffffffffffffffffffffffffffffffffffffffff1660601b81526014018381526020018281526020019350505050604051602081830303815290604052805190602001208585856200353f565b62002beb57604080517f08c379a000000000000000000000000000000000000000000000000000000000815260206004820152601b60248201527f50656572207369676e6174757265732061726520696e76616c69640000000000604482015290519081900360640190fd5b62002bf686620037c6565b60008581526003602090815260409182902080547fffffffffffffffffffffffffffffffffffffffffffffffffffffffffffffff00166001908117909155825173ffffffffffffffffffffffffffffffffffffffff8a1681529182015281517fa9fac23eb012e72fbd1f453498e7069c380385436763ee2c1c057b170d88d9f9929181900390910190a150600195945050505050565b60005460ff16151560011462002cee576040517f08c379a000000000000000000000000000000000000000000000000000000000815260040180806020018281038252603381526020018062004d606033913960400191505060405180910390fd5b600054610100900460ff161562002d51576040517f08c379a000000000000000000000000000000000000000000000000000000000815260040180806020018281038252604281526020018062004ceb6042913960600191505060405180910390fd5b600054610100900460ff161562002d6757600080fd5b3073ffffffffffffffffffffffffffffffffffffffff86161462002d8a57600080fd5b62002de98585600954604051602001808473ffffffffffffffffffffffffffffffffffffffff1660601b81526014018381526020018281526020019350505050604051602081830303815290604052805190602001208484846200353f565b62002e5557604080517f08c379a000000000000000000000000000000000000000000000000000000000815260206004820152601b60248201527f50656572207369676e6174757265732061726520696e76616c69640000000000604482015290519081900360640190fd5b600080547fffffffffffffffffffffffffffffffffffffffffffffffffffffffffffff00ff166101001781556040517f5389de9593f75e6515eefa796bd2d3324759f441f2c9b2dcda0efb25190378ff9190a15050505050565b60025481565b60036020526000908152604090205460ff1681565b6000805460ff16151560011462002f2d576040517f08c379a000000000000000000000000000000000000000000000000000000000815260040180806020018281038252603381526020018062004d606033913960400191505060405180910390fd5b60008581526003602052604090205460ff161562002f4a57600080fd5b62002fa98686600954604051602001808473ffffffffffffffffffffffffffffffffffffffff1660601b81526014018381526020018281526020019350505050604051602081830303815290604052805190602001208585856200353f565b6200301557604080517f08c379a000000000000000000000000000000000000000000000000000000000815260206004820152601b60248201527f50656572207369676e6174757265732061726520696e76616c69640000000000604482015290519081900360640190fd5b620030208662003873565b50600085815260036020908152604080832080547fffffffffffffffffffffffffffffffffffffffffffffffffffffffffffffff00166001179055805173ffffffffffffffffffffffffffffffffffffffff8a1681529182019290925281517fa9fac23eb012e72fbd1f453498e7069c380385436763ee2c1c057b170d88d9f9929181900390910190a150600195945050505050565b60076020526000908152604090205481565b60005460ff1615156001146200312a576040517f08c379a000000000000000000000000000000000000000000000000000000000815260040180806020018281038252603381526020018062004d606033913960400191505060405180910390fd5b60008481526003602052604090205460ff16156200314757600080fd5b73ffffffffffffffffffffffffffffffffffffffff881660009081526005602052604090205460ff16156200317b57600080fd5b620032df8888888888600954604051602001808773ffffffffffffffffffffffffffffffffffffffff1660601b815260140186805190602001908083835b60208310620031f857805182527fffffffffffffffffffffffffffffffffffffffffffffffffffffffffffffffe09092019160209182019101620031b9565b51815160209384036101000a7fffffffffffffffffffffffffffffffffffffffffffffffffffffffffffffffff018019909216911617905288519190930192880191508083835b602083106200327e57805182527fffffffffffffffffffffffffffffffffffffffffffffffffffffffffffffffe090920191602091820191016200323f565b6001836020036101000a0380198251168184511680821785525050505050509050018460ff1660f81b81526001018381526020018281526020019650505050505050604051602081830303815290604052805190602001208484846200353f565b6200334b57604080517f08c379a000000000000000000000000000000000000000000000000000000000815260206004820152601b60248201527f50656572207369676e6174757265732061726520696e76616c69640000000000604482015290519081900360640190fd5b50505073ffffffffffffffffffffffffffffffffffffffff909416600090815260056020908152604080832080547fffffffffffffffffffffffffffffffffffffffffffffffffffffffffffffff0090811660019081179092559784526003909252909120805490951617909355505050565b60005460ff16151560011462003420576040517f08c379a000000000000000000000000000000000000000000000000000000000815260040180806020018281038252603381526020018062004d606033913960400191505060405180910390fd5b600054610100900460ff161562003483576040517f08c379a000000000000000000000000000000000000000000000000000000000815260040180806020018281038252604281526020018062004ceb6042913960600191505060405180910390fd5b60003411620034f357604080517f08c379a000000000000000000000000000000000000000000000000000000000815260206004820152601f60248201527f4554482056414c55452053484f554c44204245204d4f5245205448414e203000604482015290519081900360640190fd5b6040805182815234602082015260008183018190526060820181905291517f85c0fa492ded927d3acca961da52b0dda1debb06d8c27fe189315f06bb6e26c89181900360800190a15050565b6000600160025410156200355257600080fd5b82518451146200356157600080fd5b81518351146200357057600080fd5b60006003600160025403816200358257fe5b0460025403905080835110156200359857600080fd5b60006060845167ffffffffffffffff81118015620035b557600080fd5b50604051908082528060200260200182016040528015620035e0578160200160208202803683370190505b50905060005b8551811015620037335760006200363c8a8a84815181106200360457fe5b60200260200101518a85815181106200361957fe5b60200260200101518a86815181106200362e57fe5b602002602001015162003905565b73ffffffffffffffffffffffffffffffffffffffff811660009081526001602081905260409091205491925060ff9091161515141580620036a7575073ffffffffffffffffffffffffffffffffffffffff811660009081526004602052604090205460ff1615156001145b15620036b457506200372a565b80838581518110620036c257fe5b73ffffffffffffffffffffffffffffffffffffffff9283166020918202929092018101919091529116600090815260049091526040902080547fffffffffffffffffffffffffffffffffffffffffffffffffffffffffffffff00166001908117909155909201915b600101620035e6565b5060005b82811015620037b9576000600460008484815181106200375357fe5b60209081029190910181015173ffffffffffffffffffffffffffffffffffffffff16825281019190915260400160002080547fffffffffffffffffffffffffffffffffffffffffffffffffffffffffffffff001691151591909117905560010162003737565b5050101595945050505050565b73ffffffffffffffffffffffffffffffffffffffff811660009081526001602081905260409091205460ff16151514620037ff57600080fd5b73ffffffffffffffffffffffffffffffffffffffff16600090815260016020526040902080547fffffffffffffffffffffffffffffffffffffffffffffffffffffffffffffff00169055600280547fffffffffffffffffffffffffffffffffffffffffffffffffffffffffffffffff019055565b73ffffffffffffffffffffffffffffffffffffffff811660009081526001602052604081205460ff1615620038a757600080fd5b5073ffffffffffffffffffffffffffffffffffffffff16600090815260016020819052604090912080547fffffffffffffffffffffffffffffffffffffffffffffffffffffffffffffff001682179055600280549091019081905590565b6000808560405160200180807f19457468657265756d205369676e6564204d6573736167653a0a333200000000815250601c01828152602001915050604051602081830303815290604052805190602001209050600060018287878760405160008152602001604052604051808581526020018460ff1681526020018381526020018281526020019450505050506020604051602081039080840390855afa158015620039b6573d6000803e3d6000fd5b50506040517fffffffffffffffffffffffffffffffffffffffffffffffffffffffffffffffe0015198975050505050505050565b6112a480620039f98339019056fe60806040523480156200001157600080fd5b50604051620012a4380380620012a4833981810160405260c08110156200003757600080fd5b81019080805160405193929190846401000000008211156200005857600080fd5b9083019060208201858111156200006e57600080fd5b82516401000000008111828201881017156200008957600080fd5b82525081516020918201929091019080838360005b83811015620000b85781810151838201526020016200009e565b50505050905090810190601f168015620000e65780820380516001836020036101000a031916815260200191505b50604052602001805160405193929190846401000000008211156200010a57600080fd5b9083019060208201858111156200012057600080fd5b82516401000000008111828201881017156200013b57600080fd5b82525081516020918201929091019080838360005b838110156200016a57818101518382015260200162000150565b50505050905090810190601f168015620001985780820380516001836020036101000a031916815260200191505b506040908152602082810151918301516060840151608090940151885193965090945091879187918791620001d39160039186019062000388565b508151620001e990600490602085019062000388565b506005805460ff191660ff9290921691909117610100600160a81b03191661010033810291909117918290556040516001600160a01b0391909204169250600091507f8be0079c531659141344cd1fd0a4f28419497f9722a3daafe3b4186f6b6457e0908290a360068190556200026183836200026d565b50505050505062000434565b6001600160a01b0382166200028157600080fd5b6200029d816002546200032660201b620008911790919060201c565b6002556001600160a01b03821660009081526020818152604090912054620002d09183906200089162000326821b17901c565b6001600160a01b0383166000818152602081815260408083209490945583518581529351929391927fddf252ad1be2c89b69c2b068fc378daa952ba7f163c4a11628f55a4df523b3ef9281900390910190a35050565b60008282018381101562000381576040805162461bcd60e51b815260206004820152601b60248201527f536166654d6174683a206164646974696f6e206f766572666c6f770000000000604482015290519081900360640190fd5b9392505050565b828054600181600116156101000203166002900490600052602060002090601f016020900481019282620003c057600085556200040b565b82601f10620003db57805160ff19168380011785556200040b565b828001600101855582156200040b579182015b828111156200040b578251825591602001919060010190620003ee565b50620004199291506200041d565b5090565b5b808211156200041957600081556001016200041e565b610e6080620004446000396000f3fe608060405234801561001057600080fd5b50600436106101515760003560e01c806379cc6790116100cd578063a9059cbb11610081578063f0dda65c11610066578063f0dda65c14610455578063f2fde38b1461048e578063fcec35a9146104c157610151565b8063a9059cbb146103e1578063dd62ed3e1461041a57610151565b80638f32d59b116100b25780638f32d59b1461039857806395d89b41146103a0578063a457c2d7146103a857610151565b806379cc67901461032e5780638da5cb5b1461036757610151565b8063313ce5671161012457806342966c681161010957806342966c68146102d457806370a08231146102f3578063715018a61461032657610151565b8063313ce5671461027d578063395093511461029b57610151565b806306fdde0314610156578063095ea7b3146101d357806318160ddd1461022057806323b872dd1461023a575b600080fd5b61015e6104c9565b6040805160208082528351818301528351919283929083019185019080838360005b83811015610198578181015183820152602001610180565b50505050905090810190601f1680156101c55780820380516001836020036101000a031916815260200191505b509250505060405180910390f35b61020c600480360360408110156101e957600080fd5b5073ffffffffffffffffffffffffffffffffffffffff813516906020013561057d565b604080519115158252519081900360200190f35b610228610593565b60408051918252519081900360200190f35b61020c6004803603606081101561025057600080fd5b5073ffffffffffffffffffffffffffffffffffffffff813581169160208101359091169060400135610599565b6102856105f7565b6040805160ff9092168252519081900360200190f35b61020c600480360360408110156102b157600080fd5b5073ffffffffffffffffffffffffffffffffffffffff8135169060200135610600565b6102f1600480360360208110156102ea57600080fd5b5035610643565b005b6102286004803603602081101561030957600080fd5b503573ffffffffffffffffffffffffffffffffffffffff16610650565b6102f1610678565b6102f16004803603604081101561034457600080fd5b5073ffffffffffffffffffffffffffffffffffffffff81351690602001356106fd565b61036f61070b565b6040805173ffffffffffffffffffffffffffffffffffffffff9092168252519081900360200190f35b61020c61072c565b61015e61074f565b61020c600480360360408110156103be57600080fd5b5073ffffffffffffffffffffffffffffffffffffffff81351690602001356107ce565b61020c600480360360408110156103f757600080fd5b5073ffffffffffffffffffffffffffffffffffffffff8135169060200135610811565b6102286004803603604081101561043057600080fd5b5073ffffffffffffffffffffffffffffffffffffffff8135811691602001351661081e565b6102f16004803603604081101561046b57600080fd5b5073ffffffffffffffffffffffffffffffffffffffff8135169060200135610856565b6102f1600480360360208110156104a457600080fd5b503573ffffffffffffffffffffffffffffffffffffffff16610871565b61022861088b565b60038054604080516020601f60027fffffffffffffffffffffffffffffffffffffffffffffffffffffffffffffffff6101006001881615020190951694909404938401819004810282018101909252828152606093909290918301828280156105735780601f1061054857610100808354040283529160200191610573565b820191906000526020600020905b81548152906001019060200180831161055657829003601f168201915b5050505050905090565b600061058a33848461090c565b50600192915050565b60025490565b60006105a68484846109bb565b73ffffffffffffffffffffffffffffffffffffffff84166000908152600160209081526040808320338085529252909120546105ed9186916105e89086610aae565b61090c565b5060019392505050565b60055460ff1690565b33600081815260016020908152604080832073ffffffffffffffffffffffffffffffffffffffff87168452909152812054909161058a9185906105e89086610891565b61064d3382610af0565b50565b73ffffffffffffffffffffffffffffffffffffffff1660009081526020819052604090205490565b61068061072c565b61068957600080fd5b600554604051600091610100900473ffffffffffffffffffffffffffffffffffffffff16907f8be0079c531659141344cd1fd0a4f28419497f9722a3daafe3b4186f6b6457e0908390a3600580547fffffffffffffffffffffff0000000000000000000000000000000000000000ff169055565b6107078282610bb2565b5050565b600554610100900473ffffffffffffffffffffffffffffffffffffffff1690565b600554610100900473ffffffffffffffffffffffffffffffffffffffff16331490565b60048054604080516020601f60027fffffffffffffffffffffffffffffffffffffffffffffffffffffffffffffffff6101006001881615020190951694909404938401819004810282018101909252828152606093909290918301828280156105735780601f1061054857610100808354040283529160200191610573565b33600081815260016020908152604080832073ffffffffffffffffffffffffffffffffffffffff87168452909152812054909161058a9185906105e89086610aae565b600061058a3384846109bb565b73ffffffffffffffffffffffffffffffffffffffff918216600090815260016020908152604080832093909416825291909152205490565b61085e61072c565b61086757600080fd5b6107078282610bfe565b61087961072c565b61088257600080fd5b61064d81610cc1565b60065481565b60008282018381101561090557604080517f08c379a000000000000000000000000000000000000000000000000000000000815260206004820152601b60248201527f536166654d6174683a206164646974696f6e206f766572666c6f770000000000604482015290519081900360640190fd5b9392505050565b73ffffffffffffffffffffffffffffffffffffffff821661092c57600080fd5b73ffffffffffffffffffffffffffffffffffffffff831661094c57600080fd5b73ffffffffffffffffffffffffffffffffffffffff808416600081815260016020908152604080832094871680845294825291829020859055815185815291517f8c5be1e5ebec7d5bd14f71427d1e84f3dd0314c0f7b2291e5b200ac8c7c3b9259281900390910190a3505050565b73ffffffffffffffffffffffffffffffffffffffff82166109db57600080fd5b73ffffffffffffffffffffffffffffffffffffffff8316600090815260208190526040902054610a0b9082610aae565b73ffffffffffffffffffffffffffffffffffffffff8085166000908152602081905260408082209390935590841681522054610a479082610891565b73ffffffffffffffffffffffffffffffffffffffff8084166000818152602081815260409182902094909455805185815290519193928716927fddf252ad1be2c89b69c2b068fc378daa952ba7f163c4a11628f55a4df523b3ef92918290030190a3505050565b600061090583836040518060400160405280601e81526020017f536166654d6174683a207375627472616374696f6e206f766572666c6f770000815250610d79565b73ffffffffffffffffffffffffffffffffffffffff8216610b1057600080fd5b600254610b1d9082610aae565b60025573ffffffffffffffffffffffffffffffffffffffff8216600090815260208190526040902054610b509082610aae565b73ffffffffffffffffffffffffffffffffffffffff8316600081815260208181526040808320949094558351858152935191937fddf252ad1be2c89b69c2b068fc378daa952ba7f163c4a11628f55a4df523b3ef929081900390910190a35050565b610bbc8282610af0565b73ffffffffffffffffffffffffffffffffffffffff82166000908152600160209081526040808320338085529252909120546107079184916105e89085610aae565b73ffffffffffffffffffffffffffffffffffffffff8216610c1e57600080fd5b600254610c2b9082610891565b60025573ffffffffffffffffffffffffffffffffffffffff8216600090815260208190526040902054610c5e9082610891565b73ffffffffffffffffffffffffffffffffffffffff83166000818152602081815260408083209490945583518581529351929391927fddf252ad1be2c89b69c2b068fc378daa952ba7f163c4a11628f55a4df523b3ef9281900390910190a35050565b73ffffffffffffffffffffffffffffffffffffffff8116610ce157600080fd5b60055460405173ffffffffffffffffffffffffffffffffffffffff80841692610100900416907f8be0079c531659141344cd1fd0a4f28419497f9722a3daafe3b4186f6b6457e090600090a36005805473ffffffffffffffffffffffffffffffffffffffff909216610100027fffffffffffffffffffffff0000000000000000000000000000000000000000ff909216919091179055565b60008184841115610e22576040517f08c379a00000000000000000000000000000000000000000000000000000000081526004018080602001828103825283818151815260200191508051906020019080838360005b83811015610de7578181015183820152602001610dcf565b50505050905090810190601f168015610e145780820380516001836020036101000a031916815260200191505b509250505060405180910390fd5b50505090039056fea2646970667358221220528cc72b6277e121333b119874b05c55ae4ae7cd8ed95ab2992f04228f1dbb1564736f6c6343000704003353696465636861696e206173736574206973206e6f7420726567697374657265644e4f5420454e4f5547482044454c45474154454420544f4b454e53204f4e2053454e4445522042414c414e4345436f6e74726163742073686f756c64206e6f7420626520707265706172656420666f72206d6967726174696f6e20746f2075736520746869732066756e6374696f6e54686520546f6b656e206973206e6f7420616363657074656420666f72207472616e7366657220746f2073696465636861696e436f6e74726163742073686f756c6420626520696e697469616c697a656420746f2075736520746869732066756e6374696f6e436f6e74726163742073686f756c6420626520707265706172656420666f72206d6967726174696f6e20746f2075736520746869732066756e6374696f6ea26469706673582212204020c657bf73d726619b1acdd6c620aba5c4932e6a83f2813d4a6c5cb0b45d0e64736f6c63430007040033",
  "immutableReferences": {},
  "source": "pragma solidity ^0.7.4;\n// \"SPDX-License-Identifier: Apache License 2.0\"\n\nimport \"./MasterToken.sol\";\nimport \"./Ownable.sol\";\nimport \"./ERC20Burnable.sol\";\n\n/**\n * Provides functionality of the HASHI bridge\n */\ncontract BridgeEVM {\n    bool internal initialized_;\n    bool internal preparedForMigration_;\n\n    mapping(address => bool) public isPeer;\n    uint public peersCount;\n\n    /** Substrate proofs used */\n    mapping(bytes32 => bool) public used;\n    mapping(address => bool) public _uniqueAddresses;\n\n    /** White list of ERC-20 ethereum native tokens */\n    mapping(address => bool) public acceptedEthTokens;\n\n    /** White lists of ERC-20 SORA native tokens\n    * We use several representations of the white list for optimisation purposes.\n    */\n    mapping(bytes32 => address) public _sidechainTokens;\n    mapping(address => bytes32) public _sidechainTokensByAddress;\n    address[] public _sidechainTokenAddressArray;\n\n    event Withdrawal(bytes32 txHash);\n    event Deposit(bytes32 destination, uint amount, address token, bytes32 sidechainAsset);\n    event ChangePeers(address peerId, bool removal);\n    event PreparedForMigration();\n    event Migrated(address to);\n\n    /** EVM netowrk ID */\n    bytes32 public _networkId;\n\n    /**\n     * Constructor.\n     * @param initialPeers - list of initial bridge validators on substrate side.\n     * @param networkId id of current EvM network used for bridge purpose.\n     */\n    constructor(\n        address[] memory initialPeers,\n        bytes32 networkId)  {\n        for (uint8 i = 0; i < initialPeers.length; i++) {\n            addPeer(initialPeers[i]);\n        }\n        _networkId = networkId;\n        initialized_ = true;\n        preparedForMigration_ = false;\n    }\n\n    modifier shouldBeInitialized {\n        require(initialized_ == true, \"Contract should be initialized to use this function\");\n        _;\n    }\n\n    modifier shouldNotBePreparedForMigration {\n        require(preparedForMigration_ == false, \"Contract should not be prepared for migration to use this function\");\n        _;\n    }\n\n    modifier shouldBePreparedForMigration {\n        require(preparedForMigration_ == true, \"Contract should be prepared for migration to use this function\");\n        _;\n    }\n\n    fallback() external {\n        revert();\n    }\n\n    receive() external payable {\n        revert();\n    }\n    \n    /*\n    Used only for migration\n    */\n    function receivePayment() external payable {}\n\n    /**\n     * Adds new token to whitelist.\n     * Token should not been already added.\n     *\n     * @param newToken new token contract address\n     * @param ticker token ticker (symbol)\n     * @param name token title\n     * @param decimals count of token decimal places\n     * @param txHash transaction hash from sidechain\n     * @param v array of signatures of tx_hash (v-component)\n     * @param r array of signatures of tx_hash (r-component)\n     * @param s array of signatures of tx_hash (s-component)\n     */\n    function addEthNativeToken(\n        address newToken,\n        string memory ticker,\n        string memory name,\n        uint8 decimals,\n        bytes32 txHash,\n        uint8[] memory v,\n        bytes32[] memory r,\n        bytes32[] memory s\n    )\n    public shouldBeInitialized {\n        require(used[txHash] == false);\n        require(acceptedEthTokens[newToken] == false);\n        require(checkSignatures(keccak256(abi.encodePacked(newToken, ticker, name, decimals, txHash, _networkId)),\n            v,\n            r,\n            s), \"Peer signatures are invalid\"\n        );\n        acceptedEthTokens[newToken] = true;\n        used[txHash] = true;\n    }\n\n    /**\n     * Preparations for migration to new Bridge contract\n     *\n     * @param thisContractAddress address of this bridge contract\n     * @param salt unique data used for signature\n     * @param v array of signatures of tx_hash (v-component)\n     * @param r array of signatures of tx_hash (r-component)\n     * @param s array of signatures of tx_hash (s-component)\n     */\n    function prepareForMigration(\n        address thisContractAddress,\n        bytes32 salt,\n        uint8[] memory v,\n        bytes32[] memory r,\n        bytes32[] memory s\n    )\n    public\n    shouldBeInitialized shouldNotBePreparedForMigration {\n        require(preparedForMigration_ == false);\n        require(address(this) == thisContractAddress);\n        require(checkSignatures(keccak256(abi.encodePacked(thisContractAddress, salt, _networkId)),\n            v,\n            r,\n            s), \"Peer signatures are invalid\"\n        );\n        preparedForMigration_ = true;\n        emit PreparedForMigration();\n    }\n\n    /**\n    * Shutdown this contract and migrate tokens ownership to the new contract.\n    *\n    * @param thisContractAddress this bridge contract address\n    * @param salt unique data used for signature generation\n    * @param newContractAddress address of the new bridge contract\n    * @param erc20nativeTokens list of ERC20 tokens with non zero balances for this contract. Can be taken from substrate bridge peers.\n    * @param v array of signatures of tx_hash (v-component)\n    * @param r array of signatures of tx_hash (r-component)\n    * @param s array of signatures of tx_hash (s-component)\n    */\n    function shutDownAndMigrate(\n        address thisContractAddress,\n        bytes32 salt,\n        address payable newContractAddress,\n        address[] calldata erc20nativeTokens,\n        uint8[] memory v,\n        bytes32[] memory r,\n        bytes32[] memory s\n    )\n    public\n    shouldBeInitialized shouldBePreparedForMigration {\n        require(address(this) == thisContractAddress);\n        require(checkSignatures(keccak256(abi.encodePacked(thisContractAddress, newContractAddress, salt, erc20nativeTokens, _networkId)),\n            v,\n            r,\n            s), \"Peer signatures are invalid\"\n        );\n        for (uint i = 0; i < _sidechainTokenAddressArray.length; i++) {\n            Ownable(_sidechainTokenAddressArray[i]).transferOwnership(newContractAddress);\n        }\n        for (uint i = 0; i < erc20nativeTokens.length; i++) {\n            IERC20 token = IERC20(erc20nativeTokens[i]);\n            token.transfer(newContractAddress, token.balanceOf(address(this)));\n        }\n        BridgeEVM(newContractAddress).receivePayment{value: address(this).balance}();\n        initialized_ = false;\n        emit Migrated(newContractAddress);\n    }\n\n    /**\n    * Add new token from sidechain to the bridge white list.\n    *\n    * @param name token title\n    * @param symbol token symbol\n    * @param decimals number of decimals\n    * @param sidechainAssetId token id on the sidechain\n    * @param txHash sidechain transaction hash\n    * @param v array of signatures of tx_hash (v-component)\n    * @param r array of signatures of tx_hash (r-component)\n    * @param s array of signatures of tx_hash (s-component)\n    */\n    function addNewSidechainToken(\n        string memory name,\n        string memory symbol,\n        uint8 decimals,\n        bytes32 sidechainAssetId,\n        bytes32 txHash,\n        uint8[] memory v,\n        bytes32[] memory r,\n        bytes32[] memory s)\n    public shouldBeInitialized {\n        require(used[txHash] == false);\n        require(checkSignatures(keccak256(abi.encodePacked(\n                name,\n                symbol,\n                decimals,\n                sidechainAssetId,\n                txHash,\n                _networkId\n            )),\n            v,\n            r,\n            s), \"Peer signatures are invalid\"\n        );\n        // Create new instance of the token\n        MasterToken tokenInstance = new MasterToken(name, symbol, decimals, address(this), 0, sidechainAssetId);\n        address tokenAddress = address(tokenInstance);\n        _sidechainTokens[sidechainAssetId] = tokenAddress;\n        _sidechainTokensByAddress[tokenAddress] = sidechainAssetId;\n        _sidechainTokenAddressArray.push(tokenAddress);\n        used[txHash] = true;\n    }\n\n    /**\n    * Send Ethereum to sidechain.\n    *\n    * @param to destionation address on sidechain.\n    */\n    function sendEthToSidechain(\n        bytes32 to\n    )\n    public\n    payable\n    shouldBeInitialized shouldNotBePreparedForMigration {\n        require(msg.value > 0, \"ETH VALUE SHOULD BE MORE THAN 0\");\n        bytes32 empty;\n        emit Deposit(to, msg.value, address(0x0), empty);\n    }\n\n    /**\n     * Send ERC-20 token to sidechain.\n     *\n     * @param to destination address on the sidechain\n     * @param amount amount to sendERC20ToSidechain\n     * @param tokenAddress contract address of token to send\n     */\n    function sendERC20ToSidechain(\n        bytes32 to,\n        uint amount,\n        address tokenAddress)\n    external\n    shouldBeInitialized shouldNotBePreparedForMigration {\n        IERC20 token = IERC20(tokenAddress);\n\n        require(token.allowance(msg.sender, address(this)) >= amount, \"NOT ENOUGH DELEGATED TOKENS ON SENDER BALANCE\");\n\n        bytes32 sidechainAssetId = _sidechainTokensByAddress[tokenAddress];\n        if (sidechainAssetId != \"\") {\n            ERC20Burnable mtoken = ERC20Burnable(tokenAddress);\n            mtoken.burnFrom(msg.sender, amount);\n        } else {\n            require(acceptedEthTokens[tokenAddress], \"The Token is not accepted for transfer to sidechain\");\n            token.transferFrom(msg.sender, address(this), amount);\n        }\n        emit Deposit(to, amount, tokenAddress, sidechainAssetId);\n    }\n\n    /**\n     * Add new peer using peers quorum.\n     *\n     * @param newPeerAddress address of the peer to add\n     * @param txHash tx hash from sidechain\n     * @param v array of signatures of tx_hash (v-component)\n     * @param r array of signatures of tx_hash (r-component)\n     * @param s array of signatures of tx_hash (s-component)\n     */\n    function addPeerByPeer(\n        address newPeerAddress,\n        bytes32 txHash,\n        uint8[] memory v,\n        bytes32[] memory r,\n        bytes32[] memory s\n    )\n    public\n    shouldBeInitialized\n    returns (bool)\n    {\n        require(used[txHash] == false);\n        require(checkSignatures(keccak256(abi.encodePacked(newPeerAddress, txHash, _networkId)),\n            v,\n            r,\n            s), \"Peer signatures are invalid\"\n        );\n\n        addPeer(newPeerAddress);\n        used[txHash] = true;\n        emit ChangePeers(newPeerAddress, false);\n        return true;\n    }\n\n    /**\n     * Remove peer using peers quorum.\n     *\n     * @param peerAddress address of the peer to remove\n     * @param txHash tx hash from sidechain\n     * @param v array of signatures of tx_hash (v-component)\n     * @param r array of signatures of tx_hash (r-component)\n     * @param s array of signatures of tx_hash (s-component)\n     */\n    function removePeerByPeer(\n        address peerAddress,\n        bytes32 txHash,\n        uint8[] memory v,\n        bytes32[] memory r,\n        bytes32[] memory s\n    )\n    public\n    shouldBeInitialized\n    returns (bool)\n    {\n        require(used[txHash] == false);\n        require(checkSignatures(\n                keccak256(abi.encodePacked(peerAddress, txHash, _networkId)),\n                v,\n                r,\n                s), \"Peer signatures are invalid\"\n        );\n\n        removePeer(peerAddress);\n        used[txHash] = true;\n        emit ChangePeers(peerAddress, true);\n        return true;\n    }\n\n    /**\n     * Withdraws specified amount of ether or one of ERC-20 tokens to provided sidechain address\n     * @param tokenAddress address of token to withdraw (0 for ether)\n     * @param amount amount of tokens or ether to withdraw\n     * @param to target account address\n     * @param txHash hash of transaction from sidechain\n     * @param from source of transfer\n     * @param v array of signatures of tx_hash (v-component)\n     * @param r array of signatures of tx_hash (r-component)\n     * @param s array of signatures of tx_hash (s-component)\n     */\n    function receiveByEthereumAssetAddress(\n        address tokenAddress,\n        uint256 amount,\n        address payable to,\n        address from,\n        bytes32 txHash,\n        uint8[] memory v,\n        bytes32[] memory r,\n        bytes32[] memory s\n    )\n    public shouldBeInitialized\n    {\n        require(used[txHash] == false);\n        require(checkSignatures(\n                keccak256(abi.encodePacked(tokenAddress, amount, to, from, txHash, _networkId)),\n                v,\n                r,\n                s), \"Peer signatures are invalid\"\n        );\n\n        if (tokenAddress == address(0)) {\n            used[txHash] = true;\n            // untrusted transfer, relies on provided cryptographic proof\n            to.transfer(amount);\n        } else {\n            IERC20 coin = IERC20(tokenAddress);\n            used[txHash] = true;\n            // untrusted call, relies on provided cryptographic proof\n            coin.transfer(to, amount);\n        }\n        emit Withdrawal(txHash);\n    }\n\n    /**\n     * Mint new Token\n     * @param sidechainAssetId id of sidechainToken to mint\n     * @param amount how much to mint\n     * @param to destination address\n     * @param from sender address\n     * @param txHash hash of transaction from Iroha\n     * @param v array of signatures of tx_hash (v-component)\n     * @param r array of signatures of tx_hash (r-component)\n     * @param s array of signatures of tx_hash (s-component)\n     */\n    function receiveBySidechainAssetId(\n        bytes32 sidechainAssetId,\n        uint256 amount,\n        address to,\n        address from,\n        bytes32 txHash,\n        uint8[] memory v,\n        bytes32[] memory r,\n        bytes32[] memory s\n    )\n    public shouldBeInitialized\n    {\n        require(_sidechainTokens[sidechainAssetId] != address(0x0), \"Sidechain asset is not registered\");\n        require(used[txHash] == false);\n        require(checkSignatures(\n                keccak256(abi.encodePacked(sidechainAssetId, amount, to, from, txHash, _networkId)),\n                v,\n                r,\n                s), \"Peer signatures are invalid\"\n        );\n\n        MasterToken tokenInstance = MasterToken(_sidechainTokens[sidechainAssetId]);\n        tokenInstance.mintTokens(to, amount);\n        used[txHash] = true;\n        emit Withdrawal(txHash);\n    }\n\n    /**\n     * Checks given addresses for duplicates and if they are peers signatures\n     * @param hash unsigned data\n     * @param v v-component of signature from hash\n     * @param r r-component of signature from hash\n     * @param s s-component of signature from hash\n     * @return true if all given addresses are correct or false otherwise\n     */\n    function checkSignatures(bytes32 hash,\n        uint8[] memory v,\n        bytes32[] memory r,\n        bytes32[] memory s\n    )\n    private\n    returns (bool) {\n        require(peersCount >= 1);\n        require(v.length == r.length);\n        require(r.length == s.length);\n        uint needSigs = peersCount - (peersCount - 1) / 3;\n        require(s.length >= needSigs);\n\n        uint count = 0;\n        address[] memory recoveredAddresses = new address[](s.length);\n        for (uint i = 0; i < s.length; ++i) {\n            address recoveredAddress = recoverAddress(\n                hash,\n                v[i],\n                r[i],\n                s[i]\n            );\n\n            // not a peer address or not unique\n            if (isPeer[recoveredAddress] != true || _uniqueAddresses[recoveredAddress] == true) {\n                continue;\n            }\n            recoveredAddresses[count] = recoveredAddress;\n            count = count + 1;\n            _uniqueAddresses[recoveredAddress] = true;\n        }\n\n        // restore state for future usages\n        for (uint i = 0; i < count; ++i) {\n            _uniqueAddresses[recoveredAddresses[i]] = false;\n        }\n\n        return count >= needSigs;\n    }\n\n    /**\n     * Recovers address from a given single signature\n     * @param hash unsigned data\n     * @param v v-component of signature from hash\n     * @param r r-component of signature from hash\n     * @param s s-component of signature from hash\n     * @return address recovered from signature\n     */\n    function recoverAddress(\n        bytes32 hash,\n        uint8 v,\n        bytes32 r,\n        bytes32 s)\n    private\n    pure\n    returns (address) {\n        bytes32 simple_hash = keccak256(abi.encodePacked(\"\\x19Ethereum Signed Message:\\n32\", hash));\n        address res = ecrecover(simple_hash, v, r, s);\n        return res;\n    }\n\n    /**\n     * Adds new peer to list of signature verifiers.\n     * Internal function\n     * @param newAddress address of new peer\n     */\n    function addPeer(address newAddress)\n    internal\n    returns (uint) {\n        require(isPeer[newAddress] == false);\n        isPeer[newAddress] = true;\n        ++peersCount;\n        return peersCount;\n    }\n\n    function removePeer(address peerAddress)\n    internal {\n        require(isPeer[peerAddress] == true);\n        isPeer[peerAddress] = false;\n        --peersCount;\n    }\n}\n",
  "sourcePath": "/Users/robert/Documents/Work/Soramitsu/sora2-eth/contracts/BridgeEVM.sol",
  "compiler": {
    "name": "solc",
    "version": "0.7.4+commit.3f05b770.Emscripten.clang"
  },
  "schemaVersion": "3.3.4",
  "updatedAt": "2021-04-23T11:35:29.192Z",
  "devdoc": {
    "kind": "dev",
    "methods": {
      "addEthNativeToken(address,string,string,uint8,bytes32,uint8[],bytes32[],bytes32[])": {
        "params": {
          "decimals": "count of token decimal places",
          "name": "token title",
          "newToken": "new token contract address",
          "r": "array of signatures of tx_hash (r-component)",
          "s": "array of signatures of tx_hash (s-component)",
          "ticker": "token ticker (symbol)",
          "txHash": "transaction hash from sidechain",
          "v": "array of signatures of tx_hash (v-component)"
        }
      },
      "addNewSidechainToken(string,string,uint8,bytes32,bytes32,uint8[],bytes32[],bytes32[])": {
        "params": {
          "decimals": "number of decimals",
          "name": "token title",
          "r": "array of signatures of tx_hash (r-component)",
          "s": "array of signatures of tx_hash (s-component)",
          "sidechainAssetId": "token id on the sidechain",
          "symbol": "token symbol",
          "txHash": "sidechain transaction hash",
          "v": "array of signatures of tx_hash (v-component)"
        }
      },
      "addPeerByPeer(address,bytes32,uint8[],bytes32[],bytes32[])": {
        "params": {
          "newPeerAddress": "address of the peer to add",
          "r": "array of signatures of tx_hash (r-component)",
          "s": "array of signatures of tx_hash (s-component)",
          "txHash": "tx hash from sidechain",
          "v": "array of signatures of tx_hash (v-component)"
        }
      },
      "constructor": {
        "params": {
          "initialPeers": "- list of initial bridge validators on substrate side.",
          "networkId": "id of current EvM network used for bridge purpose."
        }
      },
      "prepareForMigration(address,bytes32,uint8[],bytes32[],bytes32[])": {
        "params": {
          "r": "array of signatures of tx_hash (r-component)",
          "s": "array of signatures of tx_hash (s-component)",
          "salt": "unique data used for signature",
          "thisContractAddress": "address of this bridge contract",
          "v": "array of signatures of tx_hash (v-component)"
        }
      },
      "receiveByEthereumAssetAddress(address,uint256,address,address,bytes32,uint8[],bytes32[],bytes32[])": {
        "params": {
          "amount": "amount of tokens or ether to withdraw",
          "from": "source of transfer",
          "r": "array of signatures of tx_hash (r-component)",
          "s": "array of signatures of tx_hash (s-component)",
          "to": "target account address",
          "tokenAddress": "address of token to withdraw (0 for ether)",
          "txHash": "hash of transaction from sidechain",
          "v": "array of signatures of tx_hash (v-component)"
        }
      },
      "receiveBySidechainAssetId(bytes32,uint256,address,address,bytes32,uint8[],bytes32[],bytes32[])": {
        "params": {
          "amount": "how much to mint",
          "from": "sender address",
          "r": "array of signatures of tx_hash (r-component)",
          "s": "array of signatures of tx_hash (s-component)",
          "sidechainAssetId": "id of sidechainToken to mint",
          "to": "destination address",
          "txHash": "hash of transaction from Iroha",
          "v": "array of signatures of tx_hash (v-component)"
        }
      },
      "removePeerByPeer(address,bytes32,uint8[],bytes32[],bytes32[])": {
        "params": {
          "peerAddress": "address of the peer to remove",
          "r": "array of signatures of tx_hash (r-component)",
          "s": "array of signatures of tx_hash (s-component)",
          "txHash": "tx hash from sidechain",
          "v": "array of signatures of tx_hash (v-component)"
        }
      },
      "sendERC20ToSidechain(bytes32,uint256,address)": {
        "params": {
          "amount": "amount to sendERC20ToSidechain",
          "to": "destination address on the sidechain",
          "tokenAddress": "contract address of token to send"
        }
      },
      "sendEthToSidechain(bytes32)": {
        "params": {
          "to": "destionation address on sidechain."
        }
      },
      "shutDownAndMigrate(address,bytes32,address,address[],uint8[],bytes32[],bytes32[])": {
        "params": {
          "erc20nativeTokens": "list of ERC20 tokens with non zero balances for this contract. Can be taken from substrate bridge peers.",
          "newContractAddress": "address of the new bridge contract",
          "r": "array of signatures of tx_hash (r-component)",
          "s": "array of signatures of tx_hash (s-component)",
          "salt": "unique data used for signature generation",
          "thisContractAddress": "this bridge contract address",
          "v": "array of signatures of tx_hash (v-component)"
        }
      }
    },
    "version": 1
  },
  "userdoc": {
    "kind": "user",
    "methods": {
      "_networkId()": {
        "notice": "EVM netowrk ID "
      },
      "_sidechainTokens(bytes32)": {
        "notice": "White lists of ERC-20 SORA native tokens We use several representations of the white list for optimisation purposes."
      },
      "acceptedEthTokens(address)": {
        "notice": "White list of ERC-20 ethereum native tokens "
      },
      "addEthNativeToken(address,string,string,uint8,bytes32,uint8[],bytes32[],bytes32[])": {
        "notice": "Adds new token to whitelist. Token should not been already added."
      },
      "addNewSidechainToken(string,string,uint8,bytes32,bytes32,uint8[],bytes32[],bytes32[])": {
        "notice": "Add new token from sidechain to the bridge white list."
      },
      "addPeerByPeer(address,bytes32,uint8[],bytes32[],bytes32[])": {
        "notice": "Add new peer using peers quorum."
      },
      "constructor": {
        "notice": "Constructor."
      },
      "prepareForMigration(address,bytes32,uint8[],bytes32[],bytes32[])": {
        "notice": "Preparations for migration to new Bridge contract"
      },
      "receiveByEthereumAssetAddress(address,uint256,address,address,bytes32,uint8[],bytes32[],bytes32[])": {
        "notice": "Withdraws specified amount of ether or one of ERC-20 tokens to provided sidechain address"
      },
      "receiveBySidechainAssetId(bytes32,uint256,address,address,bytes32,uint8[],bytes32[],bytes32[])": {
        "notice": "Mint new Token"
      },
      "removePeerByPeer(address,bytes32,uint8[],bytes32[],bytes32[])": {
        "notice": "Remove peer using peers quorum."
      },
      "sendERC20ToSidechain(bytes32,uint256,address)": {
        "notice": "Send ERC-20 token to sidechain."
      },
      "sendEthToSidechain(bytes32)": {
        "notice": "Send Ethereum to sidechain."
      },
      "shutDownAndMigrate(address,bytes32,address,address[],uint8[],bytes32[],bytes32[])": {
        "notice": "Shutdown this contract and migrate tokens ownership to the new contract."
      },
      "used(bytes32)": {
        "notice": "Substrate proofs used "
      }
    },
    "notice": "Provides functionality of the HASHI bridge",
    "version": 1
  }
}